:020000040000fa
:080000000002040000000000f2
:020000040000fa
:040008000c030000e5
:020000040000fa
:04000c000c030000e1
:020000040000fa
:040010000c030000dd
:020000040000fa
:040014000c030000d9
:020000040000fa
:040018000c030000d5
:020000040000fa
:04001c000c030000d1
:020000040000fa
:040020000c030000cd
:020000040000fa
:040024000c030000c9
:020000040000fa
:040028000c030000c5
:020000040000fa
:04002c000c030000c1
:020000040000fa
:040030000c030000bd
:020000040000fa
:040034000c030000b9
:020000040000fa
:04003800d4020000ee
:020000040000fa
:04003c000c030000b1
:020000040000fa
:040040000c030000ad
:020000040000fa
:040044000c030000a9
:020000040000fa
:040048000c030000a5
:020000040000fa
:04004c000c030000a1
:020000040000fa
:040050000c0300009d
:020000040000fa
:040054000c03000099
:020000040000fa
:040058000c03000095
:020000040000fa
:04005c000c03000091
:020000040000fa
:040060000c0300008d
:020000040000fa
:040064000c03000089
:020000040000fa
:040068000c03000085
:020000040000fa
:04006c000c03000081
:020000040000fa
:040070000c0300007d
:020000040000fa
:040074000c03000079
:020000040000fa
:040078000c03000075
:020000040000fa
:04007c000c03000071
:020000040000fa
:040080000c0300006d
:020000040000fa
:040084000c03000069
:020000040000fa
:040088000c03000065
:020000040000fa
:04008c000c03000061
:020000040000fa
:040090000c0300005d
:020000040000fa
:040094000c03000059
:020000040000fa
:040098000c03000055
:020000040000fa
:04009c000c03000051
:020000040000fa
:0400a0000c0300004d
:020000040000fa
:0400a4000c03000049
:020000040000fa
:0400a8000c03000045
:020000040000fa
:0400ac000c03000041
:020000040000fa
:0400b0000c0300003d
:020000040000fa
:0400b4000c03000039
:020000040000fa
:0400b8000c03000035
:020000040000fa
:0400bc000c03000031
:020000040000fa
:0400c0000c0300002d
:020000040000fa
:0400c4000c03000029
:020000040000fa
:0400c8000c03000025
:020000040000fa
:0400cc000c03000021
:020000040000fa
:0400d0000c0300001d
:020000040000fa
:0400d4000c03000019
:020000040000fa
:0400d8000c03000015
:020000040000fa
:0400dc000c03000011
:020000040000fa
:0400e0000c0300000d
:020000040000fa
:0400e4000c03000009
:020000040000fa
:0400e8000c03000005
:020000040000fa
:0400ec000c03000001
:020000040000fa
:0400f0000c030000fd
:020000040000fa
:0400f4000c030000f9
:020000040000fa
:0400f8000c030000f5
:020000040000fa
:0400fc000c030000f1
:020000040000fa
:040100000c030000ec
:020000040000fa
:040104000c030000e8
:020000040000fa
:040108000c030000e4
:020000040000fa
:04010c000c030000e0
:020000040000fa
:040110000c030000dc
:020000040000fa
:040114000c030000d8
:020000040000fa
:040118000c030000d4
:020000040000fa
:04011c000c030000d0
:020000040000fa
:040120000c030000cc
:020000040000fa
:040124000c030000c8
:020000040000fa
:040128000c030000c4
:020000040000fa
:04012c000c030000c0
:020000040000fa
:040130000c030000bc
:020000040000fa
:040134000c030000b8
:020000040000fa
:040138000c030000b4
:020000040000fa
:04013c000c030000b0
:020000040000fa
:040140000c030000ac
:020000040000fa
:040144000c030000a8
:020000040000fa
:040148000c030000a4
:020000040000fa
:04014c000c030000a0
:020000040000fa
:040150000c0300009c
:020000040000fa
:040154000c03000098
:020000040000fa
:040158000c03000094
:020000040000fa
:04015c000c03000090
:020000040000fa
:040160000c0300008c
:020000040000fa
:040164000c03000088
:020000040000fa
:040208000c030000e3
:020000040000fa
:04020c000c030000df
:020000040000fa
:040210000c030000db
:020000040000fa
:040214000c030000d7
:020000040000fa
:040218000c030000d3
:020000040000fa
:04021c000c030000cf
:020000040000fa
:040220000c030000cb
:020000040000fa
:040224000c030000c7
:020000040000fa
:040228000c030000c3
:020000040000fa
:04022c000c030000bf
:020000040000fa
:040230000c030000bb
:020000040000fa
:040234000c030000b7
:020000040000fa
:040238000c030000b3
:020000040000fa
:04023c000c030000af
:020000040000fa
:040240000c030000ab
:020000040000fa
:040244000c030000a7
:020000040000fa
:040248000c030000a3
:020000040000fa
:04024c000c0300009f
:020000040000fa
:040250000c0300009b
:020000040000fa
:040254000c03000097
:020000040000fa
:040258000c03000093
:020000040000fa
:04025c000c0300008f
:020000040000fa
:040260000c0300008b
:020000040000fa
:040264000c03000087
:020000040000fa
:040268000c03000083
:020000040000fa
:04026c000c0300007f
:020000040000fa
:040270000c0300007b
:020000040000fa
:040274000c03000077
:020000040000fa
:040278000c03000073
:020000040000fa
:04027c000c0300006f
:020000040000fa
:040280000c0300006b
:020000040000fa
:040284000c03000067
:020000040000fa
:040288000c03000063
:020000040000fa
:04028c000c0300005f
:020000040000fa
:040290000c0300005b
:020000040000fa
:040294000c03000057
:020000040000fa
:040298000c03000053
:020000040000fa
:04029c000c0300004f
:020000040000fa
:0402a0000c0300004b
:020000040000fa
:0402a4000c03000047
:020000040000fa
:0402a8000c03000043
:020000040000fa
:0402ac000c0300003f
:020000040000fa
:0402b0000c0300003b
:020000040000fa
:0402b4000c03000037
:020000040000fa
:0402b8000c03000033
:020000040000fa
:0402bc000c0300002f
:020000040000fa
:0402c0000c0300002b
:020000040000fa
:0402c4000c03000027
:020000040000fa
:0402c8000c03000023
:020000040000fa
:0402cc000c0300001f
:020000040000fa
:0402d0000c0300001b
:020000040000fa
:0402d4000c03000017
:020000040000fa
:0402d8000c03000013
:020000040000fa
:0402dc000c0300000f
:020000040000fa
:0402e0000c0300000b
:020000040000fa
:0402e4000c03000007
:020000040000fa
:0402e8000c03000003
:020000040000fa
:0402ec000c030000ff
:020000040000fa
:0402f0000c030000fb
:020000040000fa
:0402f4000c030000f7
:020000040000fa
:0402f8000c030000f3
:020000040000fa
:0402fc000c030000ef
:020000040000fa
:040300000c030000ea
:020000040000fa
:040304000c030000e6
:020000040000fa
:040308000c030000e2
:020000040000fa
:04030c000c030000de
:020000040000fa
:040310000c030000da
:020000040000fa
:040314000c030000d6
:020000040000fa
:040318000c030000d2
:020000040000fa
:04031c000c030000ce
:020000040000fa
:040320000c030000ca
:020000040000fa
:040324000c030000c6
:020000040000fa
:040328000c030000c2
:020000040000fa
:04032c000c030000be
:020000040000fa
:040330000c030000ba
:020000040000fa
:040334000c030000b6
:020000040000fa
:040338000c030000b2
:020000040000fa
:04033c000c030000ae
:020000040000fa
:040340000c030000aa
:020000040000fa
:040344000c030000a6
:020000040000fa
:040348000c030000a2
:020000040000fa
:04034c000c0300009e
:020000040000fa
:040350000c0300009a
:020000040000fa
:040354000c03000096
:020000040000fa
:040358000c03000092
:020000040000fa
:04035c000c0300008e
:020000040000fa
:040360000c0300008a
:020000040000fa
:040364000c03000086
:020000040000fa
:100400008f8020000eff23000e01880000000000f6
:10041000000020000000e000020032000001200087
:1004200020028800140007007f0207000000e0009f
:1004300003003a0020c02100010020000200370024
:100440000000200001002000810f70000100320038
:1004500014000700000020000000e000020032004d
:1004600000000200000000005a1702000000000017
:100470000040da000000fe004440a900a025200052
:100480000000e0000300320000002000a00188000e
:100490004440a800000006008a1f78008b1f7800e7
:1004a0000000060091018800800478000000eb0045
:1004b0001a003700e284440032a0b4009905ba0063
:1004c000e284440032a0b4009906ba00e2844400f9
:1004d00032a0b4000006eb00476fde00fd07b2005b
:1004e000636ce10003003a00ebff07000000eb0043
:1004f0000a003700606ce10004003a00005deb0088
:100500008b05e900fdff3e00040037006168e10053
:10051000010032000086eb000b00070019c7ba008b
:100520001905ba000e04e00003003a000a00e000da
:10053000e0ff3a0000000600fe07b2009e018800be
:100540008a047800f5ff3700395dba008b05e900b1
:100550000c003200295dba008b05e900080032006a
:100560000c00e00003003a00e284440032a0b40032
:10057000f5ff370019ddba008b05e900faff3a00f4
:100580008904e800e184440032a0b40000000600c1
:100590005a0d040000000000840f04000000000059
:1005a00000000400000000003600f800809fbe003c
:1005b000829fbe00849fbe00869fbe000000fa009e
:1005c0008480a90085c0a900004080000000e000f0
:1005d00004003a000150240000702400180b0700aa
:1005e000030037000140240000602400140b0700c2
:1005f000004080000000a200004088000080fa0057
:100600004f03be004f02be004f01be004f00be00b0
:100610003600f900004006000040da000000fe004d
:100620000a00fa0011002000b1bf9f00c0bf9f0068
:100630006a805700d40807004fb897000080fa007e
:10064000000006000a00fa00e20f500034003e00ed
:10065000301d8200e10f500003003200e20f500015
:1006600011003a000c003700032220000300e000d4
:1006700001003a000040da002002e20002003500ea
:100680002822ef0021e2a8002342ab000d003a002f
:100690002342a8000b003700032320000300e000e2
:1006a00001003a000040da003002e20002003500aa
:1006b0003822ef0031e2a8003342ab0001003a00db
:1006c0003342a800820178000b0037003102fb00a2
:1006d000e10f500004003a002322ab00feff3a0075
:1006e00024118800030037003322ab00feff3a00dc
:1006f000a41188008301e9000300e000f3ff3a0041
:10070000e10f500003003a002302ab00feff32006d
:100710000b0037003302ab00feff32000800370049
:1007200033002000b3bf9f00c0bf9f00d1bf9f0018
:10073000e2bf9f006a805700950807006fb99700d5
:10074000020078000080fa00000006000a00fa00ab
:1007500051002000b1bf9f00c0bf9f006a805700ba
:100760008d0807005fb897000080fa0000000600bf
:10077000889fbe0080047800601d82000000e000b9
:1007800004003a000e0007000084eb000000e000c7
:1007900008003500681d82000900e00005003200f5
:1007a00009004400060007000000e00001003d00d1
:1007b0000084eb00080078004f04be000000060033
:1007c000800078000100e00003003a0000002000f3
:1007d000601d8a00000005000080eb000200200080
:1007e000828f500002003e00611d8a000000eb0075
:1007f00000000600e8874700889fbe008a9fbe0071
:100800008c9fbe008e1f78000005be0002002000f5
:10081000037024005d030700800478000104780061
:100820006011b8000a00be00d50207000000e00019
:10083000370035000900780088007800f6020700cc
:10084000d10207000005be000a00be00ef0207004b
:100850000006be000200200003f023004b03070047
:100860000007780081bf9f00010178000e0078002a
:1008700082007800e8020700e0b79f00f1b79f0010
:100880000c01be000902780088007800040378009b
:10089000810378000600be00640107000004be006a
:1008a0000200200003f023000800be00b40207008d
:1008b0000000e0007b0034000200200003f8230069
:1008c0000c00be005a010700af0207000005be0081
:1008d0008a0178000b01780003007800820078001c
:1008e000f3ff2700830f5000e08f58000200340010
:1008f000f0ff2700010020004f0778004f06be00e0
:100900004f05be004f04be008f00b100000006007e
:100910000900780088007800240207009a02070086
:100920000006be000c00be00b80207000005be00b5
:1009300009017800880178000a00be00be020700a5
:100940000000e000090032000200200003f823004c
:100950000a00be00350107008b0207000006be003a
:100960000c00be00a90207000005be000200200026
:1009700003f023000a00be0004030700000778000c
:1009800081bf9f00010178000e007800820078008e
:10099000a1020700e0b79f00f1b79f000a01be0067
:1009a0000902780088007800040378008103780049
:1009b0000600be001d0107000004be00020020006a
:1009c00003f023000800be006d0207000000e000f5
:1009d000170034000200200003f823000a00be00c4
:1009e00013010700680207000006be008c017800b2
:1009f0000d017800030078008200780002002800d2
:100a0000f3ff2f00820f5000838f5800baff3d0084
:100a10000200be004f0778004f06be004f05be0023
:100a20004f04be008f00b10000000600b8ff370081
:100a30000200200003f023008800780009007800fd
:100a400001027800800278000400be004a0207001c
:100a50000000e000e5ff3a006fb19700ffb197009a
:100a60008e0278000fba97000500780084007800a5
:100a7000ee0007000001be00ed0007004202070083
:100a80000000e000d9ff32000200200003f823003c
:100a90000a00be00e60007003b0207000006be0099
:100aa000d2ff37000200200003f023008800780006
:100ab0000900780001027800800278000400be007e
:100ac0002d0207000000e00081ff3a006fb197009f
:100ad000ffb197008e0278000fba970005007800ea
:100ae00084007800d10007000001be00d00007009c
:100af000250207000000e00075ff32000200200020
:100b000003f823000c00be00c90007001e02070006
:100b10000005be006eff3700889fbe008a9fbe00a2
:100b20008c9fbe0000057800810678000a00e9006d
:100b3000cf80de00350207000001be00b0fd2000be
:100b4000910c2400a30107008005780001067800bd
:100b50000a00e000130034008d0478000004eb006c
:100b60006140b900290207000b0178008c01780070
:100b700086020700950107000200200003f02b0009
:100b8000820207000200200003f02300a8000700f3
:100b900018ff0700801c78000804e800880f550043
:100ba000efff3c000d0078004f06be004f05be0071
:100bb0004f04be00000006004400f800040f2000af
:100bc00024028800811f78000000e90003027800f9
:100bd0000080080002000000b20278001301c0008b
:100be0003100cd004f0078004400f90000000600fd
:100bf000f80602000000000000000600889fbe000a
:100c00008a9fbe008c9fbe008e1f78004400f800b3
:100c1000070f2000270288003400f800811f7800a9
:100c20000f07780007f02f000338e10004003200be
:100c3000270280004700b30027028800a301880034
:100c400019002000804cdd00130020000204780011
:100c5000800678008904d100424edd00010578004d
:100c60000302e90004800800170000008a0546001e
:100c70004218dd000902e9000480080010000000ad
:100c8000000000004620c3003b025200df35c100d7
:100c9000080440001381c200ab825200264dc500fb
:100ca0003e85c400bb00cd00bb80cd003a00ca0029
:100cb0002a80ca000700c9000580c900ba00cd001b
:100cc000ba80cd000a054600020478008301d000f6
:100cd0008d06e900dfff3c008e0778004f007800aa
:100ce0003400f9004400f9004f0778004f06be00b9
:100cf0004f05be004f04be0000000600811f7800b3
:100d0000801f7800811f7800fe05020000000000af
:100d1000cf0078004f007800940602000000000029
:100d20004f007800000006004600f8005000f80070
:100d30000220200032028800020028001300200058
:100d40008019dd00028171008202880001007800b4
:100d50000101780026002000470020008301e900ff
:100d600003800800070000000110e10004003400c7
:100d70001102be0092087800e2307b000489be00b8
:100d800087804000121978005000f9004600f900f1
:100d900000000600821f7800849fbe008a1f780032
:100da0004400f800040f20002402880001057800a8
:100db0000601c3000080e900008008000300000075
:100dc000000000000505f0000401f1003200cd0034
:100dd0000505f0001001f1003200cd004400f900db
:100de0004f0578004f02be004f007800000006005b
:100df0004400f800040f200024028800811f7800be
:100e00000000e900008008000300000032027800c2
:100e1000b30278001301c0003100cd004f0078000c
:100e20004400f900000006000000050003f0a200e5
:100e3000889fbe008a9fbe008c1f7800bb01070000
:100e4000c20133006450e1004f0032006420e10031
:100e50005200320003826c0007003b000905d000fd
:100e60000306d000820f54000c065d00020039001a
:100e7000020032008901780003067800858255005f
:100e800004003d000003fd008103fd008502ea002f
:100e90008b854200840f720002003b00600010004e
:100ea000e08018006011b8000005eb007a28e1002e
:100eb0000a00390006007800c75ddd00f707b200c0
:100ec000878075002d003700828171000a0178004b
:100ed000610560008180d1000080d3008502e900b7
:100ee000f9ff3b00060440008784480002003b00f5
:100ef00060041400e0841c000988a300070032008d
:100f00008a81710082817100610164008904d100cd
:100f10000884d3008b05e800170037000978a30088
:100f200013003a000b00e000130034008b05e900c9
:100f30000804440089844c000a4474000978a30022
:100f40000d003a000b00e000070034008b05e900bb
:100f50000804440089844c0001003a000b00200082
:100f60000978a300f7ff32000001eb000200370010
:100f7000828171000a017800310107000cf0a7009e
:100f800001f0a0007a0137006420e10002003a007d
:100f9000838f6c007a0133000801be000200be009e
:100fa00073013700889fbe008a9fbe008c1f7800a7
:100fb0005e0107001002200002003b003040880064
:100fc000620137008a0062006408e10002003a0012
:100fd000304088006a0137006108e100fcff320000
:100fe0000800be00030478007a00070001f0a100a9
:100ff0000900070008f0a600040037000001be0049
:1010000091042400b0fd200088ff070009f0a7002c
:1010100001f0a20056013700889fbe008a9fbe00e3
:101020008c9fbe000004be002b0107000800be001c
:10103000890678006420e1000800390004003200cd
:101040000160a000120220003240880053003700e7
:1010500091fc2300b0fd20004e0037000006eb009d
:1010600009f0a10003f82300020020000800be00e0
:10107000c10007000600340001f823000000200032
:101080000801be00530007000004be002c00200031
:101090000800be0093e82300320a2300b6000700d0
:1010a000120034000801be00d1fd2300703d2b006a
:1010b0005fff07000005be00b3f32300f27a2600ad
:1010c0000800be003101070003f8230002002000e1
:1010d00056ff07000801be0055ff07000a01be00c9
:1010e0003c0007000004be000c06e8000800be003b
:1010f00001f0a10002002000039823009e000700d9
:101100000800be00160035000801be001f010700e0
:101110000005be0032cd2c0043fb230044ff070036
:10112000809fbe001269280003d52b000a00be0074
:1011300016010700620f210013ef2b003cff070090
:101140000a01be00110107004f01be002100070087
:101150000801be000d0107000801be0034ff0700b2
:101160000c00e0000b0032000c10a70001f0a20000
:10117000b2fd200093fc23006260e1000400320015
:1011800022a9200063f023000c10a70063f82300bd
:1011900027ff07000df0a70001f0a2004f06be00d8
:1011a0004f05be004f04be00000006000001eb002a
:1011b0004a000700040032000200200003f8230068
:1011c00001f0a6001aff0700000006000081eb00f6
:1011d00022013700889fbe008a9fbe008c1f7800c6
:1011e000d2000700d900330003866c006450e10090
:1011f0002e0032006420e100330032006150e10033
:101200002f0032006120e100310032008585550059
:10121000eb07b0000900200008042000050037009b
:101220000804440089844c000a003100060343008e
:1012300087834b000001530081815b00f8ff33007e
:101240000203be000800a0000804440089844c008a
:10125000f6ff3900c639dd0083017300010032005a
:10126000130020008904d1000884d3000998a3004a
:10127000050032000800a7000300a0008904d10087
:101280000884d3008b05e8008904d1000884d300ca
:101290000001eb000281d2006900070001f0a1000b
:1012a0000cf0a70001f0a000b10037006420e100bd
:1012b000b30032000801be000200be00f7ff370095
:1012c0006120e100ae0032006000b800f3ff37009b
:1012d0000000200001f82700f0ff3700889fbe00c3
:1012e0008a9fbe000003be007b00070085057800d2
:1012f00082815200020020006220e10004003a00d6
:10130000f307b100040035007718e1000400350050
:101310000600be00140037006000b8000f00370060
:10132000f50f2000faff2f008502d1000a85d300b7
:101330008301e900fcff3b0081846200000465003a
:10134000890f7400f2ff32008582ea000a85ea0004
:1013500081846200000465003900070007f0a700df
:1013600001f0a0000081eb000200e0004f05be008c
:101370004f04be00000006001400200022013700c8
:10138000f4ff2f00200137000001be0052000700cb
:101390000470a70003f0a1006509b1001600320037
:1013a0000d0035006828e10006003500f0ff2f0031
:1013b000f1ff27000300e00013003b0001002800bc
:1013c0000000050000004000818048008502e9001f
:1013d000fcff3a0008003700f88f420002003c0092
:1013e0008000eb00000005008100d1000080d300e8
:1013f0008502e800fcff3a000300e00002003b0029
:1014000060001000e0801800000006004f89de0038
:1014100082017800170137000001eb00afff0700e1
:10142000040032000200200003f8230001f0a700ae
:101430007efe07000000060004002000f2003700d6
:1014400081002000618055000b003d000b00200052
:1014500061fe2f000100e1001d0034008281710057
:10146000610164008904d1000884d3000000e80011
:10147000faff3a0071002000610064000300700070
:10148000020060000900320061044400e0844c0066
:101490000988a500050032008b05e8006808e10016
:1014a00002003a008904d1000884d300f20f200022
:1014b0000258e10005003d00c75ddd00f907b200fc
:1014c0008980750008007800000006000bf82700ee
:1014d0008b00780000000500c70ade00f107b200ab
:1014e000f50fb20008003200e1cf420002003200e6
:1014f0000170a00024000500810f7000010032007f
:101500000408050044000500810f700002003a0045
:10151000140005008502e9000000400081c0480079
:10152000fcff3b000170a000240005000004be0089
:10153000e9ff07000003be000405be000200be0074
:10154000e5ff0700844f7500000006000200be00a2
:101550006450e100050036006420e100020036001e
:101560000968a30001003a000800be000160a00065
:101570004f0678004f05be004f04be000000060075
:10158000f0ff2f00f1ff2700f9ff3700889fbe0012
:101590008a9fbe008c1f7800e4ff0700ebff33003a
:1015a00003866c006450e100240032006420e100f6
:1015b000270032006150e100220032006120e1008a
:1015c000210032008b854200eb07b1000134b800e6
:1015d000003ab8000804420089844a00013ab80081
:1015e0000030b8008880400009014a000400330040
:1015f0000000400081804800020149008b05e9009d
:10160000c909dd00830170000100320013002000d1
:10161000c814de004814dd004709de001200b200e5
:10162000c808de000884700085ff070001f0a100f3
:101630000cf0a70001f0a000cdff37006120e10011
:10164000cfff32000801be000200be00f7ff3700e6
:101650006150e100fcff3a00c9ff3700889fbe00df
:101660008a9fbe008c9fbe00820578000004be00e9
:1016700099ff07000800be006420e1000700390060
:1016800002003a00f1ff2700f0ff2f000160a000e8
:101690001202200032408800550037006120e1002e
:1016a00003003a000b00a70001f8230050003700a8
:1016b00001f0a10002002100936424002eff070026
:1016c0000800be0004003500b2fd2000930c240089
:1016d000a70007000004be000005eb000b00a600f9
:1016e0004f0dde0001f0a1000004be0032982f0073
:1016f00023ea2300a5ff07000001eb0003f023000d
:101700000b00a70003f82300c9fd07001eff070018
:101710000000a7000a00a2003cff07000b00e00049
:10172000030032000200200003f02300bffd070089
:1017300001f0a2000006be00020020009304240075
:1017400092ff07000801be00b9fd0700809fbe00a0
:101750000c00be0022a22a00d3a723008bff0700a3
:101760004f01be00b2fd07000004be0001f0a10061
:101770000200200003982300fffe07000800be00bf
:10178000190035000001be0080ff07000006be0002
:10179000b2c52900e36223007cff070022222b0050
:1017a000f3942b00a2fd07000c01be0077ff070099
:1017b000e273280083c023009dfd07000c01be00da
:1017c00072ff070042aa2a00a3e22b0098fd07003f
:1017d0000c01be006dff07000801be006bff070093
:1017e0000801be0092fd07000a00a70001f0a20058
:1017f0004f06be004f05be004f04be0000000600ad
:101800000001eb0095ff3700889fbe008a9fbe0055
:10181000841f780045ff07004f0078001100330057
:10182000f0ff2f00838f6c0006003b00040565006d
:101830000a00a7000800370009f0a60010002000e9
:1018400008003700820f5400838f5c0003003900ca
:101850001000200001003e000000200009f0a70059
:101860000000ea004f05be004f04be000000e0008b
:1018700000000600881f7800030478000300e000e1
:1018800007003d0060001000e080180060011900b2
:10189000e081190002003b0001f02d000300370039
:1018a0000400070008f0a70001f0a0004f04780032
:1018b00000000600889fbe008a9fbe000082700064
:1018c0000402710004827100260032000004be0090
:1018d0000200be006011b8006b09200095022000d4
:1018e0000182cf000a0039000541b1000082cf001b
:1018f000070039000541b1000982cf00040039001a
:101900000541b1000882cf00010039000541b10056
:1019100005425200120032000a003b008281710031
:10192000610164008100d1000080d3008984d3006c
:101930000884d3008b05e8000442e800f7ff3a0072
:10194000070037000804440089844c000000480068
:10195000818048008b05e9000442e900f9ff3a0064
:10196000b7fe07004f05be004f04be000000060092
:101970000400200000003700889fbe008a9fbe0040
:101980008c1f78004f26dd00e8fe0700effe3300d5
:101990006120e100430032006250e10041003e005e
:1019a0003e0039006420e1003c0032000582550011
:1019b0000f003b000402e80038003a00800f53009b
:1019c000818f5b00350034000800be0003f0a100e9
:1019d00001f0a60003f0a0000cf0a70014fd070022
:1019e000e3fe37000603430087834b000c464600a6
:1019f0000005530081855b00020033000a03be002e
:101a00000c00a0000402e900f6ff3b008505780009
:101a10000602430087824b0004003a006000b800d1
:101a200009f0a70001f0a000d1fe3700000252002b
:101a300081825a000704e0000400330006034300db
:101a400087834b008b05e900faff37000905780012
:101a50000604be000203be006011b80078fe070055
:101a6000e00f5200e08f5a000700350002003c00f2
:101a70000c08a300040032000601be0003f0a00021
:101a80000cf0a700eafc07000a85680001f0a1003d
:101a90000af0a70001f0a000b5fe37000800be0064
:101aa000b3fe3700100220000cf0a6003040880082
:101ab000b3fe3700889fbe00000478000100780064
:101ac0008204780088017800090178001100200064
:101ad0000e000700890f5000010032000004eb00e7
:101ae000080078004f04be00000006000000fa0065
:101af000e88157004fb9970081322400a0d520001b
:101b0000570107000080fa0000000600889fbe0011
:101b10008a9fbe008c9fbe008e1f78000006780052
:101b20000104780002007800830478000881b9007d
:101b3000020778000200e000420032000800e000e6
:101b40004100320082057800c900900069009000d1
:101b5000808f500004003900090078005000070011
:101b60000000e0002900350000402000190060005e
:101b70000a0032000b017800a10020000c00780060
:101b800036000700800678000d00e00006003200f5
:101b9000610516000a854600040037000b05780031
:101ba0008006eb00010037000b057800490090002b
:101bb000e9009000808050008a8f500002003100c0
:101bc000010578008006eb000a0178008c0078009f
:101bd0002c0007008a855500490090000a0040004b
:101be000c00498000d00e0000400320009007800f5
:101bf000d50007000000e00004003a000b00e00000
:101c0000020032000a064600cfff370000802000a5
:101c1000190060000200320009007800ca000700c5
:101c200000c020001900600002003200490090004e
:101c3000e00498008b055700110009008885d80042
:101c4000010037000000eb004f0778004f06be0090
:101c50004f05be004f04be00000006000300370021
:101c6000b0cf1000050032000201e90080017800c9
:101c70000200e000faff3a000000050003007800cf
:101c8000000006008001780002003700b15978009a
:101c90000201e9000200e000fcff3a00000006003b
:101ca000889fbe008a1f780000047800c80090005a
:101cb000680190000000eb00828f50003c0039006a
:101cc000180078002200290002016000e20f510094
:101cd00007003200012024000000e00001003d0068
:101ce00001202000008c70000080eb0030003700e5
:101cf0000200260002006000820f500009003a0036
:101d000038009000808f50000600390008007800ed
:101d10008d000700800078000080eb000100e000eb
:101d200023003a001805780000c02000000065007c
:101d300018003a00a804900060022000080040004b
:101d4000808f540013003a00002020000a02070090
:101d5000200498000000e00005003a0029049800e3
:101d6000490498008904e800390498000800370005
:101d70000a60a0000a0c78004004980001202000ae
:101d80008080400031049800400c9800500c98006e
:101d90000c000700280090005004980038009000c4
:101da0006004980000002600180c70000000eb0092
:101db0004f0578004f04be000000060040f82000e8
:101dc0009b003700881f7800883a24001804e00040
:101dd00003003a00f9ff070020c0b300004c780070
:101de0004f04780000000600889fbe0000047800c1
:101df00008007800540007008004780000042000e8
:101e000018006000020032002800900075010700f1
:101e10000000eb0020049800384090000004e0002f
:101e2000050035000000fb00fdf907000000e000a0
:101e3000010032008084eb00181090000000e000e8
:101e40000800320041fa07000000e0000100320003
:101e50008084eb0018109000620107000000eb0086
:101e600010149800000820001800600015003200cf
:101e70000001eb006000b800833724000202d000ac
:101e800063027a00880f520005003a00000040000b
:101e900081804800008041000008eb000600370008
:101ea00061004000e08048000201e800e80f5000b7
:101eb000e08f5800f0ff3a00080078004901070061
:101ec0000e003700000c780000c0eb003044980092
:101ed00060022000080040002004980040049800a0
:101ee00050049800400c980060049800500c980032
:101ef0007004980076004400000c980009007800f7
:101f00004f04be0000000600881f78000004eb00ac
:101f10006140b800e2ff2f00f3ff2f00a00207008e
:101f200062382400620078000000e0000100320006
:101f3000adff07000804e800e80f5400f4ff3a0082
:101f40004f04780000000600889fbe00000478005f
:101f50000800e0000e003a008004eb008800d0008a
:101f600080372400610078000000e00004003200a7
:101f7000f5ff07000000e00001003d008084eb0059
:101f80000804e800e80f5400f4ff3a002500370089
:101f900000002200180060008004eb0021003200e5
:101fa000a80490000f00370009015100384090004c
:101fb0000000fb0089007800a2f907000000e000a3
:101fc00007003c002800900040049800600498003e
:101fd000500c98001890a0008084eb00110037008e
:101fe0008084440048019000828f5400eeff390045
:101ff00028009000400498009800780002c020005b
:102000000281600001003a003800900001e8a3005e
:10201000020032006004980001003700500c980064
:102020008004eb00090078004f04be0000000600a9
:10203000010020000100e0000800320001008000e3
:102040000100e000050032008100e9000100880085
:102050008100d0000200800000b17800000006007e
:102060006200fa00889fbe008a1f78000005780091
:1020700081047800020478008300780080f92f0042
:102080000f0040003e0207009a979f00a9979f000b
:102090000000eb00b09f9f001885fb008a04fb0046
:1020a0000a05ea004f55de0050022000808f5400e0
:1020b0000d003200e10f55000b003a000a017800d4
:1020c000880078002f9097009f91970003000100ef
:1020d000a0979f000000e0008e0032003f9897001c
:1020e0000000e800b09f9f000a0444005002200056
:1020f000808f5400040032000900e000e6ff3a003f
:102100003f989700840037000000eb00909f9f00ed
:10211000809f9f00f0979f00e0979f00d0979f00bf
:10212000c0979f0007003700c1392400010050000c
:10213000000040000139240061007800df9897001a
:1021400001007000d09f9f00880478000904780087
:10215000384578008a00fb00c039240030010700b0
:102160000000e000f0ff3a00a1c2b300814f55002b
:102170000e003a00cf8897000180e900c08f9f00d1
:1021800010007800c09f9f000000e00005003d00a7
:102190000000ea00c09f9f005f9897000020a00009
:1021a000d09f9f000904e8000f003700c09f9f00e8
:1021b0000000eb0005003700f2ff2700820f5000ff
:1021c000020032006a01b900028040000904780070
:1021d00088047800b900fb000103b100e98f5000ca
:1021e000f5ff3600c09f9f00e0c2b300984f10007b
:1021f000020032000080eb0019003700a0c2b300db
:10220000d84f100007003a00cf8897000180e900fe
:10221000c08f9f0010007800a09f9f000804e80076
:10222000100037000000eb00a09f9f00880078009e
:1022300005003700f3ff2700830f50000200320033
:102240006a02b900040041000104780088007800a7
:102250003101fb000203b100e90f5100f5ff360028
:10226000a09f9f00984478008900fb0080382400dc
:10227000eb0007000000e000020032000804e80064
:10228000010037008044eb00c97f9f0080c6b30087
:1022900080cf540004003a0098cf14000a003a009e
:1022a0006640500006003700c0c6b30080cf54001f
:1022b00005003a0098cf140003003a006540400042
:1022c000c07f9f000804e8001801fb00e3fb2f001b
:1022d0008f81410081f92f008f804000a0f92f00ed
:1022e0000f004000100007000000e00009003a0065
:1022f000e1fb2f008f804000a0f92f000f0040006d
:10230000e30007000000e000020035000804e800d8
:1023100061ff37000080eb004f0578004f04be00de
:102320000080fa0000000600889fbe008a1f780027
:102330000004780030c5b300804f5100080032001f
:1023400030c7b300804f51000500320051c2b300c6
:1023500078009000814f510017003a0014003700b8
:102360001180e90080087800100578006a04980060
:10237000d80c90000900e00004003d000a0078003d
:10238000b3000700800478000700370009017800d7
:102390008000eb000a00780030fe07000000e0003b
:1023a000010032008a045000190c9800090037001f
:1023b0008271780005003700808141000204e0004e
:1023c00001003a0001417800824978000000e800ed
:1023d000700498000000eb004f0578004f04be0029
:1023e000000006000000e0002f003200c00178006d
:1023f000e38f51002c0036000308a3002a003a00a6
:10240000211d82000100e00002003200810f500017
:102410000400310011009800201d8a0016003700ca
:1024200082007800110190000200e00002003200fa
:10243000800f5100faff39001102780084824000b9
:10244000850f500018003900808f520003003a00b9
:102450008308420001007800070037000200e00016
:102460000300320083014000830f51000e00390049
:102470001200980090009800900090000100e00089
:102480000900320010014000828f500006003a001f
:10249000223a24000009eb001001780011084100e5
:1024a000910090001100980000000600889fbe0077
:1024b00000047800111d82000100e00002003200db
:1024c000010078000d003700211d8200403a2400f1
:1024d00004003700910f5400250036000180e80009
:1024e000910090000100e000faff3a001000370070
:1024f000920f54001e0036000280e80010017800a0
:102500000200e000faff3a0011017800211d82006c
:10251000403a240004003700910f540014003600a4
:102520000180e80091009000828f5000faff3a008d
:10253000591d8200888f5400010031008804780002
:1025400009007800480007000000e00004003a009d
:10255000888f5400050032008904d100f5ff370050
:10256000091878009fff0700d2ff37000000eb003a
:102570004f04be0000000600881f7800630440007e
:102580000800a1008000eb00800f540021003600fd
:10259000e30f540001003e004800200008007800ce
:1025a000c2ff07008000eb000000e00019003200cd
:1025b000900078009101780064815100880f5100eb
:1025c0000300310011019000020878000700370075
:1025d00008814000020878009101900013019800e2
:1025e00010017800110914008808780010017800a3
:1025f0000000eb000200e0000400320092019000b5
:102600000300e000010032000280e800101d8a0093
:102610008180e800010078004f0478000000060087
:10262000020037000304e0000600320000017800d9
:1026300002007800b041780081cf5100f9ff3a00e4
:10264000010037000001eb000200780000000600e6
:1026500080007800010178003104e000fdff3a00bd
:102660000000510000000600800078000000eb0030
:102670000100e00005003400010078003cf807008c
:10268000e10f400001003a000000eb0000000600ee
:102690000400fa00889fbe008a9fbe008c1f78004d
:1026a0000004780001067800f80d90007800900092
:1026b0008085550008089000808555001808900016
:1026c00080855500280890008085550038089000c6
:1026d0008085550048089000808555000002220042
:1026e00090bf9f0000032300a0bf9f000810900030
:1026f0000028a30015003a000b00e000130034008e
:102700000b0578008a047800e20f550001003600be
:1027100029002000c801900009017800ee805700d0
:102720005800900003000100500498000000e000f1
:102730008c0032006808900009004000600c98008e
:10274000090555004240a900eeff3c0078019000c9
:102750000200e0000c003400c80190008c007800fa
:102760005800900003000100500498008080eb00a6
:102770000000e0007c003200e80890007800900043
:1027800000804000600c9800880c90000900e00078
:102790001100340009057800e28f54000100360072
:1027a0002a002000c80190000a017800ec80570040
:1027b0005800900003000100500498000000e00061
:1027c00068003200680890000a004000600c980021
:1027d0008a845400edff3700180990000200e000e1
:1027e0000c003400c8019000e800900058009000f0
:1027f00003000100500498008080eb000000e0001e
:1028000059003200e808900018089000008040004d
:10281000600c9800a80c90000900e0001100340042
:1028200009057800e28f5400010036002a002000dc
:10283000c80190000a017800ec8057005800900011
:1028400003000100500498000000e0004500320041
:10285000680890000a004000600c98008a845400c8
:10286000edff3700380990000200e0000e00340050
:10287000e80090001808900080804000c801900097
:102880005800900003000100500498008080eb0085
:102890000000e00034003200e808900038089000a2
:1028a00000804000600c9800c80c90000900e00017
:1028b0001100340009057800e28f54000100360051
:1028c0002a002000c80190000a017800ec8057001f
:1028d0005800900003000100500498000000e00040
:1028e00020003200680890000a004000600c980048
:1028f0008a845400edff3700081090008000eb0040
:102900000028a300180032000b00e000160034007d
:102910008b04780009057800e28f5400010036002e
:102920002a002000c80190000a017800ee805700bc
:102930005800900003000100500498000000e000df
:1029400008003200680890000a004000600c9800ff
:102950008a8454004240a900eeff3c008000eb0056
:10296000010037008080eb00010078004f067800fe
:102970004f05be004f04be000080fa0000000600b4
:10298000010878000000060000c0da000000060020
:1029900000c0da000000060000c0da0000000600f7
:1029a000020ab900001bb9000200b8008100420011
:0829b000810043000000060055
:020000040000fa
:102a0000ff7f000000000000d97f0000b8f900003f
:102a1000627f000074f300009d7e000038ed00002e
:102a20008a7d000007e700002a7c0000e6e0000045
:102a30007d7a0000d8da000085780000e1d400003b
:102a40004276000004cf0000b673000046c90000c3
:102a5000e3700000a9c30000ca6d000032be000090
:102a60006e6a0000e3b80000d0660000c0b300004a
:102a7000f2620000ccae0000d75e00000aaa00009f
:102a8000825a00007ea50000f655000029a1000032
:102a9000345100000e9d0000404c000030990000b1
:102aa0001d47000092950000ce41000036920000c4
:102ab000573c00001d8f0000ba3600004a8c000011
:102ac000fc300000be8900001f2b00007b87000047
:102ad00028250000838500001a1f0000d68300000f
:102ae000f918000076820000c8120000638100001f
:102af0008c0c00009e80000048060000278000002b
:102b00000000000000800000b8f9000027800000ed
:102b100074f300009e80000038ed00006381000027
:102b200007e7000076820000e6e00000d6830000a0
:102b3000d8da000083850000e1d400007c87000023
:102b400004cf0000be89000046c900004a8c000086
:102b5000a9c300001d8f000032be000036920000a5
:102b6000e3b8000092950000c0b300003199000066
:102b7000ccae00000e9d00000aaa000029a10000b2
:102b80007ea500007ea5000029a100000aaa000081
:102b90000e9d0000ccae000031990000c0b30000d3
:102ba00092950000e3b800003692000032be0000ab
:102bb0001d8f0000a9c300004a8c000046c9000018
:102bc000be89000004cf00007c870000e1d4000033
:102bd00083850000d8da0000d6830000e6e000001c
:102be0007682000007e700006381000038ed0000f6
:102bf0009e80000074f3000027800000b8f90000f8
:102c0000ff7f000000000000d97f000048060000a0
:102c1000627f00008c0c00009d7e0000c812000046
:102c20008a7d0000f91800002a7c00001a1f0000ad
:102c30007d7a000028250000857800001f2b000009
:102c400042760000fc300000b6730000ba36000087
:102c5000e3700000573c0000ca6d0000ce41000048
:102c60006e6a00001d470000d0660000404c000066
:102c7000f262000034510000d75e0000f6550000fb
:102c8000825a0000825a0000f6550000d75e00000c
:102c900034510000f2620000404c0000d066000099
:102ca0001d4700006e6a0000ce410000ca6d0000a2
:102cb000573c0000e3700000ba360000b673000015
:102cc000fc300000427600001f2b000085780000d9
:102cd000282500007d7a00001a1f00002a7c0000d1
:102ce000f91800008a7d0000c81200009d7e0000d7
:102cf0008c0c0000627f000048060000d97f0000b5
:102d000000000000ff7f0000b8f90000d97f00003c
:102d100074f30000627f000038ed00009d7e00002b
:102d200007e700008a7d0000e6e000002a7c000042
:102d3000d8da00007d7a0000e1d400008478000039
:102d400004cf00004276000046c90000b6730000c0
:102d5000a9c30000e370000032be0000ca6d00008d
:102d6000e3b800006e6a0000c0b30000cf66000048
:102d7000ccae0000f26200000aaa0000d75e00009c
:102d80007ea50000825a000029a10000f65500002f
:102d90000e9d00003451000031990000404c0000ad
:102da000929500001d47000036920000ce410000c1
:102db0001d8f0000573c00004a8c0000ba3600000e
:102dc000be890000fc3000007c8700001f2b000043
:102dd0008385000028250000d68300001a1f00000c
:102de00076820000f918000063810000c81200001c
:102df0009e8000008c0c0000278000004806000028
:102e00005245000053450000540a00000d00000028
:102e100054520000414e0000534600004f52000043
:102e20004d2000004d4f0000444500000a0d0000f9
:102e30000054000077690000646400006c650000c5
:102e40002046000061630000746f00007273000090
:102e500020000000696e000020700000726f00000a
:102e600067720000616d0000206d0000656d00005c
:102e70006f720000790a00000d0000004861000038
:102e80006e6e0000696e0000672000007769000028
:102e90006e6400006f770000696e0000672000001c
:102ea000656e0000616200006c650000640a00004d
:042eb0000d00000011
:020000040000fa
:102eb4000000fa0020000700490007000070290004
:102ec400801f780008fb07008f87e90080702900c5
:102ed400801f780004fb07008f87e90090712900a8
:102ee400801f780000fb07008f87e900a07229008b
:102ef400801f7800fcfa07008f87e900e07329003f
:102f0400801f7800f8fa07008f87e9009a0007000d
:102f1400520007007f000700012024000008200061
:102f2400fcf6070081e3a8008de3a80021e3a800d4
:102f3400f1e3a800ffff37000000fa009002200030
:102f4400303a8800213a8000f0f32f0000806000be
:102f5400203a8800213a800000fe2f0000806000a3
:102f6400203a88004827ef0040a7a900120020005b
:102f740080072000a10920003374200080497800d4
:102f84008149780082497800120020006004200002
:102f9400710520002374200080497800814978005d
:102fa4008249780000000000113a800000002700e8
:102fb4008080600000002100808f5000faff3a00fa
:102fc40000000000113a8000000220000080600030
:102fd4000000e000fbff32000080fa000000060061
:102fe4000000fa000080eb0060198800c862a900a4
:102ff400c842a8002135800000fe2f000080600038
:103004000010a0002035880011368000f00f2e003b
:1030140080806000003020000100700010368800bd
:103024002002a9000111800090ff2f0000806000a1
:103034000011880020a2a9002062a900e007200056
:103044004011880021e2a8002342a80010002000bb
:10305400301d8a000080fa00000006000000fa001b
:103064000119800000302000010070000019880060
:1030740001198000000e2000010070000019880072
:103084002043a8002143a80011198000f0cf2f008d
:1030940000806000101988002343a90025e3a900db
:1030a40021198000f00f2e00808060000030200085
:1030b4000100700020198800f0c3b30024e3b700b6
:1030c4004119800000fe2f00008060004019880034
:1030d40028e3a9000080eb00601988002c03a900f4
:1030e4002223a9002183a8001119800030fc2f009d
:1030f4000080600010198800901980007000b300ef
:103104009019880085a0a90095a0a9000080fa0064
:10311400000006000000fa00f2e3a800f103a80092
:10312400f183a90000002800a01f88004ba7a90074
:10313400513a8000f07f2e0000806000503a8800f1
:103144004ae7a900513a8000007020000100700095
:10315400503a8800811f800000f82f000080600032
:103164000040a000801f8800f203a900f223a900f8
:103174000080fa00000006000000fa00011c800034
:10318400f0fc2f0000806000001c8800011c8000ff
:10319400c0ff2f00008060000010a000001c880009
:1031a40081a3a90081c3a90000302000401c88002d
:1031b400f0072000501c8800d0002000101c88005c
:1031c40000702000201c880000602000301c880053
:1031d4008480a9009480a800611c8000f0fc2f006a
:1031e40000806000601c8800611c8000c0ff2f000c
:1031f400008060000010a000601c88008da3a8005f
:103204008dc3a900603f2000a01c8800f0072000a7
:10321400b01c8800e0042000701c880000502000ce
:10322400801c880000402000901c880085c0a900f4
:1032340095c0a9000080fa00000006000604fa0008
:10324400889fbe0022402000020147000009780048
:1032540040402000000047000108780010f82800d2
:1032640081e8230062f507008000780020402000f8
:1032740000014700203020000e004000810178004a
:1032840012017800800078000008200049f6070049
:103294000000eb00000f78001100370021302000ff
:1032a4008e8040001e00780000004000e10078009d
:1032b4001e0078004201dd000000240000004100ef
:1032c400010878001e007800c200dd002000240000
:1032d400008040008000eb00010878001e0fe80029
:1032e400f00720009e007800808f5000ebff340030
:1032f40003202400022024000120240000082000d0
:103304003af60700000020008000780000502900f1
:103314008101780000017800010024007000200081
:1033240035f6070001002400700020007df6070038
:103334000e80e8000001780001002400000820004d
:1033440093f607000000eb00000f78004d003700f3
:103354001e007800c200dd00000024000080400050
:1033640010007800cf80de0027f807000004be00bc
:103374001e0078004200dd008080e8000000240088
:103384000080400010007800cf80de001ef80700a7
:103394000801be0002f70700faf707008000780072
:1033a400222020000e0141001e0078000000400091
:1033b40000004100010878001e0078004200dd0092
:1033c4000000470010009000cf80de000ef80700d8
:1033d4000004be00212020008e8040001e007800e2
:1033e4000000400061007800cf80de0006f807008e
:1033f40075f707000001be000800be0062f8070070
:10340400e0f70700800078001e0078004201dd002c
:103414000000240000004100010878001e0078002c
:103424004200dd000000470010009000cf80de0065
:10343400f5f707000004be00212020008e80400024
:103444001e0078000000400061007800cf80de009c
:10345400edf70700e9f807000001be000800be0010
:1034640049f80700c7f70700800078001e007800bd
:103474004201dd0020002400000041000108780022
:103484001e0fe800f00720009e007800808f500097
:10349400afff3400000020008000780000602900a5
:1034a40081017800000178000100240070002000f0
:1034b40011f607000000eb00000f78000c00370045
:1034c4001e007800c200dd000000240000804000df
:1034d40010007800c700dd001e0078004201dd0006
:1034e4000000240000004100010878001e0fe800dd
:1034f400f00720009e007800808f5000f0ff340019
:103504000000eb00000f78000c0037001e0078006c
:1035140000004000414020008100470011004000ad
:103524009e0078004209dd00010024008100410072
:1035340091007800010878001e0fe800f0072000d1
:103544009e007800808f5000f0ff340000e02f00d0
:10355400f1f72300a6f407004140200001014700d1
:10356400414020008100470080017800120178006a
:1035740091007800001020008ef507000000eb0099
:10358400000f78000e0037001e0078000000400095
:103594004140200081004700910040001e00780057
:1035a4000000400042402000020147001200400099
:1035b4001000780000004000800878001e0fe8002a
:1035c400f00720009e007800808f5000eeff34004a
:1035d4004f04be000080fa00000006001000fa004c
:1035e400881f7800400798005107980062079800e8
:1035f400730798006011b8006e009000fe00900000
:103604005cf707000000e00018003a0018c0b3009f
:103614006011b8004e009000de00900057f70700dc
:103624000000e00001003c000044eb000804e0005e
:1036340003003200a0fd200091fc23006d00370040
:103644006011b8004e009000de00900049f70700ba
:103654000000e00002003a006000b8006500370096
:10366400a0fd200091fc2b00620037006e01900049
:10367400fe0190004e009000de009000d4f607009a
:1036840020079800310798002e009000be0090009b
:1036940001f0a10018c0b3000200200003f82300c9
:1036a40034f707000000e000010035000044eb009f
:1036b4000804e0002e00320092c22500f3e8230043
:1036c4002e009000be009000aff707002e0190007e
:1036d400be019000acf707000200200003f82300ad
:1036e400d2f507000001be002e009000be0090003d
:1036f400b7f60700008fbe0018c0b3006011b80011
:103704006e009000fe0090001af707000000e00031
:10371400010035000044eb000804e00034003200ee
:1037240018c0b3006011b8004e009000de00900095
:1037340010f707000000e000010035000044eb0032
:103744000804e00005003200b2fd200093042400c8
:103754001e00be00b4f5070026003700b2fd2000ad
:10376400930424001e00be00b0f5070021003700ba
:103774002e019000be0190002e009000be0090002b
:1037840081f7070092c22500f3e82300a7f507009c
:103794000001be002e009000be0090008cf60700d1
:1037a4000001be00a0fd200091fc23009ef507004f
:1037b400008fbe0018c0b3006011b8004e00900026
:1037c400de009000ebf607000000e0000100350089
:1037d4000044eb000804e00005003200b2fd2000c4
:1037e400930424001e00be008ff50700010037007b
:1037f4001e00be004f0478000080fa00000006009e
:020000040000fa
:103804000042000000010000000000000040000031
:103814000002000000000000000800000600000094
:10382400000000000047000000010000000000004c
:1038340000460000000100000000000000450000f8
:10384400000100000000000000440000000100002e
:1038540000000000a6430000020000000200000077
:103864000100000006080000020000000000000043
:103874000043000088000000020000000100000076
:103884000026430027432600432643002643260000
:103894004316430000000000000000000000000088
:1038a4000000000000000000000000000000000014
:1038b4000002080001014e00434f43004e434e00f6
:1038c400434e43004e433e0043000000000000000e
:1038d40000000000000000000000000000000000e4
:1038e4000000000000000200080202007643770096
:1038f40043764300764376004376430066430000f4
:1039040000000000000000000000000000000000b3
:103914000000000000000000000000000043280038
:1039240043504300000000000000000000000000bd
:1039340000000000a8430000020000000000000096
:10394400884300001a00000002000000686a6c004e
:10395400747a4c000000010000020000040008001a
:1039640000100000000020002b2d23003000000078
:10397400aa4300000200000002000000040000004e
:10398400a24300000400000000000000ac4300005b
:0c39940002000000000000000000000025
:020000040000fa
:0200000401f009
:04000c008000000070
:020000040000fa
:0200000401f009
:040010006700000085
:020000040000fa
:0200000401f009
:040014005f00000089
:00000001FF
